:100000000C942A000C9434000C9434000C943400AA
:100010000C9434000C9434000C9434000C94340090
:100020000C9434000C9434000C9434000C94340080
:100030000C9434000C9434000C9434000C94340070
:100040000C9434000C9434000C9434000C94340060
:100050000C94340011241FBECFE5D4E0DEBFCDBF29
:100060000E94E2000C94F6000C9400001BBA2FEFE3
:1000700032E547E0215030404040E1F700C0000049
:1000800080E090E061E070E04BB39B01082E02C07D
:10009000220F331F0A94E2F7242B2BBB2FEF32E5FC
:1000A00047E0215030404040E1F700C00000019699
:1000B0008830910549F71BBA8FEF92E527E0815010
:1000C00090402040E1F700C0000087E090E061E050
:1000D00070E04BB39B01082E02C0220F331F0A941D
:1000E000E2F7242B2BBB3FEF42E527E031504040A5
:1000F0002040E1F700C00000019758F708951BBAAF
:100100002FEF32E547E0215030404040E1F700C09A
:10011000000083E090E061E070E0E7E0F0E04BB3E6
:100120009B01082E02C0220F331F0A94E2F7422BD4
:100130009F01281B390BDB0102C0AA0FBB1F2A95A8
:10014000E2F79D01242B2BBBBFEF22E537E0B15036
:1001500020403040E1F700C00000019700F71BBAD3
:100160008FEF92E5A7E081509040A040E1F700C0FA
:10017000000080E090E061E070E0E7E0F0E04BB389
:100180009B01082E02C0220F331F0A94E2F7422B74
:100190009F01281B390BDB0102C0AA0FBB1F2A9548
:1001A000E2F79D01242B2BBBBFEF22E537E0B150D6
:1001B00020403040E1F700C00000019684309105F6
:1001C000F1F608958FEF8ABB17BA84BB8BBB88BB4F
:1001D00015BACFEFB09B02C0B49904C0C5BB0E9452
:1001E0007F00F8CF15BA0E943600F4CFF894FFCF05
:00000001FF
